8=FIX.4.4|9=107|35=D|49=ClientA|56=TradingPlatform|52=20230608-07:33:19.853|38=736|55=AAPL|11=8260337|54=1|44=13|40=2|59=0|10=331|8=FIX.4.4|9=130|35=8|49=TradingPlatform|56=ClientA|52=20230608-07:33:19.853|38=736|44=13|55=AAPL|11=8260337|150=0|17=1|39=0|54=1|40=2|59=0|58=New|10=143|8=FIX.4.4|9=106|35=G|49=ClientC|56=TradingPlatform|52=20230608-07:33:24.520|38=973|55=AAPL|11=383422|54=2|44=19|40=2|59=0|10=268|8=FIX.4.4|9=107|35=8|49=TradingPlatform|56=ClientC|52=20230608-07:33:24.520|55=AAPL|11=383422|150=8|58=Missing OrigClOrdID|10=339|8=FIX.4.4|9=106|35=D|49=ClientB|56=TradingPlatform|52=20230608-07:33:27.466|38=416|55=AAPL|11=288081|54=1|44=15|40=2|59=0|10=325|8=FIX.4.4|9=129|35=8|49=TradingPlatform|56=ClientB|52=20230608-07:33:27.466|38=416|44=15|55=AAPL|11=288081|150=0|17=2|39=0|54=1|40=2|59=0|58=New|10=229|8=FIX.4.4|9=108|35=D|49=ClientC|56=TradingPlatform|52=20230608-07:33:31.239|38=297|55=AAPL|11=5298313|54=2|44=-10|40=2|59=0|10=237|8=FIX.4.4|9=102|35=8|49=TradingPlatform|56=ClientC|52=20230608-07:33:31.239|55=AAPL|11=5298313|150=8|58=Invalid Price|10=329|8=FIX.4.4|9=107|35=D|49=ClientB|56=TradingPlatform|52=20230608-07:33:34.890|38=307|55=AAPL|11=8228403|54=1|44=12|40=2|59=0|10=280|8=FIX.4.4|9=130|35=8|49=TradingPlatform|56=ClientB|52=20230608-07:33:34.890|38=307|44=12|55=AAPL|11=8228403|150=0|17=3|39=0|54=1|40=2|59=0|58=New|10=160|8=FIX.4.4|9=102|35=G|49=ClientA|56=TradingPlatform|52=20230608-07:33:36.983|38=263|55=AAPL|11=16692124|54=2|40=2|59=0|10=253|8=FIX.4.4|9=109|35=8|49=TradingPlatform|56=ClientA|52=20230608-07:33:36.983|55=AAPL|11=16692124|150=8|58=Missing OrigClOrdID|10=143|8=FIX.4.4|9=107|35=D|49=ClientC|56=TradingPlatform|52=20230608-07:33:41.558|38=640|55=AAPL|11=5694426|54=1|44=17|40=2|59=0|10=136|8=FIX.4.4|9=130|35=8|49=TradingPlatform|56=ClientC|52=20230608-07:33:41.558|38=640|44=17|55=AAPL|11=5694426|150=0|17=4|39=0|54=1|40=2|59=0|58=New|10=194|8=FIX.4.4|9=108|35=D|49=ClientC|56=TradingPlatform|52=20230608-07:33:46.065|38=996|55=AAPL|11=14931192|54=2|44=12|40=2|59=0|10=213|8=FIX.4.4|9=131|35=8|49=TradingPlatform|56=ClientC|52=20230608-07:33:46.065|38=996|44=12|55=AAPL|11=14931192|150=0|17=5|39=0|54=2|40=2|59=0|58=New|10=297|8=FIX.4.4|9=160|35=8|49=TradingPlatform|56=ClientC|52=20230608-07:33:46.065|38=996|55=AAPL|11=14931192|17=6|880=1|150=F|39=1|54=2|40=2|59=0|32=640|31=17|151=356|14=640|58=Fill|10=164|8=FIX.4.4|9=157|35=8|49=TradingPlatform|56=ClientC|52=20230608-07:33:46.065|38=640|55=AAPL|11=5694426|17=7|880=1|150=F|39=2|54=1|40=2|59=0|32=640|31=17|151=0|14=640|58=Fill|10=194|8=FIX.4.4|9=158|35=8|49=TradingPlatform|56=ClientC|52=20230608-07:33:46.065|38=996|55=AAPL|11=14931192|17=8|880=2|150=F|39=2|54=2|40=2|59=0|32=356|31=15|151=0|14=996|58=Fill|10=230|8=FIX.4.4|9=157|35=8|49=TradingPlatform|56=ClientB|52=20230608-07:33:46.065|38=416|55=AAPL|11=288081|17=9|880=2|150=F|39=1|54=1|40=2|59=0|32=356|31=15|151=60|14=356|58=Fill|10=287|8=FIX.4.4|9=108|35=D|49=ClientB|56=TradingPlatform|52=20230608-07:33:47.979|38=570|55=AAPL|11=16188595|54=2|44=11|40=2|59=0|10=352|8=FIX.4.4|9=132|35=8|49=TradingPlatform|56=ClientB|52=20230608-07:33:47.979|38=570|44=11|55=AAPL|11=16188595|150=0|17=10|39=0|54=2|40=2|59=0|58=New|10=110|8=FIX.4.4|9=159|35=8|49=TradingPlatform|56=ClientB|52=20230608-07:33:47.979|38=570|55=AAPL|11=16188595|17=11|880=3|150=F|39=1|54=2|40=2|59=0|32=60|31=15|151=510|14=60|58=Fill|10=236|8=FIX.4.4|9=156|35=8|49=TradingPlatform|56=ClientB|52=20230608-07:33:47.979|38=416|55=AAPL|11=288081|17=12|880=3|150=F|39=2|54=1|40=2|59=0|32=60|31=15|151=0|14=416|58=Fill|10=250|8=FIX.4.4|9=159|35=8|49=TradingPlatform|56=ClientB|52=20230608-07:33:47.979|38=570|55=AAPL|11=16188595|17=13|880=4|150=F|39=2|54=2|40=2|59=0|32=510|31=13|151=0|14=570|58=Fill|10=332|8=FIX.4.4|9=160|35=8|49=TradingPlatform|56=ClientA|52=20230608-07:33:47.979|38=736|55=AAPL|11=8260337|17=14|880=4|150=F|39=1|54=1|40=2|59=0|32=510|31=13|151=226|14=510|58=Fill|10=281|8=FIX.4.4|9=102|35=D|49=ClientB|56=TradingPlatform|52=20230608-07:33:51.928|38=75|55=AAPL|11=10637916|44=16|40=2|59=0|10=221|8=FIX.4.4|9=102|35=8|49=TradingPlatform|56=ClientB|52=20230608-07:33:51.928|55=AAPL|11=10637916|150=8|58=Missing Side|10=137|8=FIX.4.4|9=107|35=D|49=ClientB|56=TradingPlatform|52=20230608-07:33:52.753|38=349|55=AAPL|11=9960234|54=2|44=16|40=2|59=0|10=136|8=FIX.4.4|9=131|35=8|49=TradingPlatform|56=ClientB|52=20230608-07:33:52.753|38=349|44=16|55=AAPL|11=9960234|150=0|17=15|39=0|54=2|40=2|59=0|58=New|10=330|8=FIX.4.4|9=96|35=F|49=ClientB|56=TradingPlatform|52=20230608-07:33:56.471|55=AAPL|11=18973326|41=9960234|54=2|10=280|8=FIX.4.4|9=147|35=8|49=TradingPlatform|56=ClientB|52=20230608-07:33:56.471|38=349|44=16|55=AAPL|11=9960234|41=9960234|150=4|17=16|39=4|54=2|40=2|59=0|58=Canceled|10=358|8=FIX.4.4|9=113|35=G|49=ClientA|56=TradingPlatform|52=20230608-07:33:56.503|38=151|55=AAPL|11=10978750|41=8260337|54=1|40=2|59=0|10=321|8=FIX.4.4|9=119|35=8|49=TradingPlatform|56=ClientA|52=20230608-07:33:56.503|55=AAPL|11=10978750|150=8|58=Not enough remaining quantity|10=243|8=FIX.4.4|9=84|35=F|49=ClientB|56=TradingPlatform|52=20230608-07:34:01.453|55=AAPL|11=6090202|54=2|10=272|8=FIX.4.4|9=108|35=8|49=TradingPlatform|56=ClientB|52=20230608-07:34:01.453|55=AAPL|11=6090202|150=8|58=Missing OrigClOrdID|10=101|8=FIX.4.4|9=107|35=D|49=ClientA|56=TradingPlatform|52=20230608-07:34:02.991|38=603|55=AAPL|11=5372021|54=2|44=19|40=2|59=0|10=299|8=FIX.4.4|9=131|35=8|49=TradingPlatform|56=ClientA|52=20230608-07:34:02.991|38=603|44=19|55=AAPL|11=5372021|150=0|17=17|39=0|54=2|40=2|59=0|58=New|10=325|8=FIX.4.4|9=101|35=D|49=ClientB|56=TradingPlatform|52=20230608-07:34:07.316|55=AAPL|11=11441224|54=2|44=17|40=2|59=0|10=336|8=FIX.4.4|9=101|35=8|49=TradingPlatform|56=ClientB|52=20230608-07:34:07.316|55=AAPL|11=11441224|150=8|58=Invalid Qty|10=351|8=FIX.4.4|9=108|35=D|49=ClientB|56=TradingPlatform|52=20230608-07:34:10.761|38=739|55=AAPL|11=10548881|54=2|44=12|40=2|59=0|10=302|8=FIX.4.4|9=132|35=8|49=TradingPlatform|56=ClientB|52=20230608-07:34:10.761|38=739|44=12|55=AAPL|11=10548881|150=0|17=18|39=0|54=2|40=2|59=0|58=New|10=189|8=FIX.4.4|9=161|35=8|49=TradingPlatform|56=ClientB|52=20230608-07:34:10.761|38=739|55=AAPL|11=10548881|17=19|880=5|150=F|39=1|54=2|40=2|59=0|32=226|31=13|151=513|14=226|58=Fill|10=112|8=FIX.4.4|9=158|35=8|49=TradingPlatform|56=ClientA|52=20230608-07:34:10.761|38=736|55=AAPL|11=8260337|17=20|880=5|150=F|39=2|54=1|40=2|59=0|32=226|31=13|151=0|14=736|58=Fill|10=352|8=FIX.4.4|9=161|35=8|49=TradingPlatform|56=ClientB|52=20230608-07:34:10.761|38=739|55=AAPL|11=10548881|17=21|880=6|150=F|39=1|54=2|40=2|59=0|32=307|31=12|151=206|14=533|58=Fill|10=222|8=FIX.4.4|9=158|35=8|49=TradingPlatform|56=ClientB|52=20230608-07:34:10.761|38=307|55=AAPL|11=8228403|17=22|880=6|150=F|39=2|54=1|40=2|59=0|32=307|31=12|151=0|14=307|58=Fill|10=279|8=FIX.4.4|9=109|35=D|49=ClientC|56=TradingPlatform|52=20230608-07:34:14.075|38=7147|55=AAPL|11=15723167|54=2|44=20|40=2|59=0|10=153|8=FIX.4.4|9=101|35=8|49=TradingPlatform|56=ClientC|52=20230608-07:34:14.075|55=AAPL|11=15723167|150=8|58=Invalid Qty|10=243|8=FIX.4.4|9=107|35=D|49=ClientC|56=TradingPlatform|52=20230608-07:34:18.400|38=338|55=AAPL|11=5712577|54=1|44=13|40=2|59=0|10=292|8=FIX.4.4|9=131|35=8|49=TradingPlatform|56=ClientC|52=20230608-07:34:18.400|38=338|44=13|55=AAPL|11=5712577|150=0|17=23|39=0|54=1|40=2|59=0|58=New|10=107|8=FIX.4.4|9=159|35=8|49=TradingPlatform|56=ClientB|52=20230608-07:34:18.400|38=739|55=AAPL|11=10548881|17=24|880=7|150=F|39=2|54=2|40=2|59=0|32=206|31=12|151=0|14=739|58=Fill|10=264|8=FIX.4.4|9=160|35=8|49=TradingPlatform|56=ClientC|52=20230608-07:34:18.400|38=338|55=AAPL|11=5712577|17=25|880=7|150=F|39=1|54=1|40=2|59=0|32=206|31=12|151=132|14=206|58=Fill|10=177|8=FIX.4.4|9=108|35=D|49=ClientC|56=TradingPlatform|52=20230608-07:34:21.581|38=636|55=AAPL|11=16813793|54=1|44=17|40=2|59=0|10=303|8=FIX.4.4|9=132|35=8|49=TradingPlatform|56=ClientC|52=20230608-07:34:21.581|38=636|44=17|55=AAPL|11=16813793|150=0|17=26|39=0|54=1|40=2|59=0|58=New|10=186|8=FIX.4.4|9=108|35=D|49=ClientB|56=TradingPlatform|52=20230608-07:34:22.706|38=155|55=AAPL|11=15504816|54=1|44=17|40=2|59=0|10=302|8=FIX.4.4|9=132|35=8|49=TradingPlatform|56=ClientB|52=20230608-07:34:22.706|38=155|44=17|55=AAPL|11=15504816|150=0|17=27|39=0|54=1|40=2|59=0|58=New|10=246|8=FIX.4.4|9=106|35=D|49=ClientC|56=TradingPlatform|52=20230608-07:34:25.591|38=618|55=AAPL|11=355534|54=1|44=12|40=2|59=0|10=271|8=FIX.4.4|9=130|35=8|49=TradingPlatform|56=ClientC|52=20230608-07:34:25.591|38=618|44=12|55=AAPL|11=355534|150=0|17=28|39=0|54=1|40=2|59=0|58=New|10=190|8=FIX.4.4|9=107|35=D|49=ClientA|56=TradingPlatform|52=20230608-07:34:26.491|38=703|55=AAPL|11=5403620|54=2|44=13|40=2|59=0|10=159|8=FIX.4.4|9=131|35=8|49=TradingPlatform|56=ClientA|52=20230608-07:34:26.491|38=703|44=13|55=AAPL|11=5403620|150=0|17=29|39=0|54=2|40=2|59=0|58=New|10=150|8=FIX.4.4|9=160|35=8|49=TradingPlatform|56=ClientA|52=20230608-07:34:26.491|38=703|55=AAPL|11=5403620|17=30|880=8|150=F|39=1|54=2|40=2|59=0|32=155|31=17|151=548|14=155|58=Fill|10=337|8=FIX.4.4|9=159|35=8|49=TradingPlatform|56=ClientB|52=20230608-07:34:26.491|38=155|55=AAPL|11=15504816|17=31|880=8|150=F|39=2|54=1|40=2|59=0|32=155|31=17|151=0|14=155|58=Fill|10=334|8=FIX.4.4|9=158|35=8|49=TradingPlatform|56=ClientA|52=20230608-07:34:26.491|38=703|55=AAPL|11=5403620|17=32|880=9|150=F|39=2|54=2|40=2|59=0|32=548|31=17|151=0|14=703|58=Fill|10=338|8=FIX.4.4|9=160|35=8|49=TradingPlatform|56=ClientC|52=20230608-07:34:26.491|38=636|55=AAPL|11=16813793|17=33|880=9|150=F|39=1|54=1|40=2|59=0|32=548|31=17|151=88|14=548|58=Fill|10=142|8=FIX.4.4|9=108|35=D|49=ClientB|56=TradingPlatform|52=20230608-07:34:29.142|38=847|55=AAPL|11=11985881|54=2|44=12|40=2|59=0|10=181|8=FIX.4.4|9=132|35=8|49=TradingPlatform|56=ClientB|52=20230608-07:34:29.142|38=847|44=12|55=AAPL|11=11985881|150=0|17=34|39=0|54=2|40=2|59=0|58=New|10=141|8=FIX.4.4|9=160|35=8|49=TradingPlatform|56=ClientB|52=20230608-07:34:29.142|38=847|55=AAPL|11=11985881|17=35|880=10|150=F|39=1|54=2|40=2|59=0|32=88|31=17|151=759|14=88|58=Fill|10=273|8=FIX.4.4|9=159|35=8|49=TradingPlatform|56=ClientC|52=20230608-07:34:29.142|38=636|55=AAPL|11=16813793|17=36|880=10|150=F|39=2|54=1|40=2|59=0|32=88|31=17|151=0|14=636|58=Fill|10=323|8=FIX.4.4|9=162|35=8|49=TradingPlatform|56=ClientB|52=20230608-07:34:29.142|38=847|55=AAPL|11=11985881|17=37|880=11|150=F|39=1|54=2|40=2|59=0|32=132|31=13|151=627|14=220|58=Fill|10=221|8=FIX.4.4|9=159|35=8|49=TradingPlatform|56=ClientC|52=20230608-07:34:29.142|38=338|55=AAPL|11=5712577|17=38|880=11|150=F|39=2|54=1|40=2|59=0|32=132|31=13|151=0|14=338|58=Fill|10=306|8=FIX.4.4|9=160|35=8|49=TradingPlatform|56=ClientB|52=20230608-07:34:29.142|38=847|55=AAPL|11=11985881|17=39|880=12|150=F|39=1|54=2|40=2|59=0|32=618|31=12|151=9|14=838|58=Fill|10=269|8=FIX.4.4|9=158|35=8|49=TradingPlatform|56=ClientC|52=20230608-07:34:29.142|38=618|55=AAPL|11=355534|17=40|880=12|150=F|39=2|54=1|40=2|59=0|32=618|31=12|151=0|14=618|58=Fill|10=240|8=FIX.4.4|9=107|35=D|49=ClientA|56=TradingPlatform|52=20230608-07:34:32.912|38=346|55=AAPL|11=3830711|54=2|44=16|40=2|59=0|10=286|8=FIX.4.4|9=131|35=8|49=TradingPlatform|56=ClientA|52=20230608-07:34:32.912|38=346|44=16|55=AAPL|11=3830711|150=0|17=41|39=0|54=2|40=2|59=0|58=New|10=323|8=FIX.4.4|9=108|35=D|49=ClientB|56=TradingPlatform|52=20230608-07:34:34.060|38=526|55=AAPL|11=15669762|54=1|44=10|40=2|59=0|10=147|8=FIX.4.4|9=132|35=8|49=TradingPlatform|56=ClientB|52=20230608-07:34:34.060|38=526|44=10|55=AAPL|11=15669762|150=0|17=42|39=0|54=1|40=2|59=0|58=New|10=192|8=FIX.4.4|9=112|35=G|49=ClientB|56=TradingPlatform|52=20230608-07:34:35.101|38=969|55=AAPL|11=984746|41=15669762|54=1|40=2|59=0|10=225|8=FIX.4.4|9=147|35=8|49=TradingPlatform|56=ClientB|52=20230608-07:34:35.101|38=969|44=10|55=AAPL|11=984746|41=15669762|150=5|17=43|39=5|54=1|40=2|59=0|58=Replaced|10=175|8=FIX.4.4|9=106|35=D|49=ClientA|56=TradingPlatform|52=20230608-07:34:37.002|38=25|55=AAPL|11=4878022|54=2|44=13|40=2|59=0|10=273|8=FIX.4.4|9=130|35=8|49=TradingPlatform|56=ClientA|52=20230608-07:34:37.002|38=25|44=13|55=AAPL|11=4878022|150=0|17=44|39=0|54=2|40=2|59=0|58=New|10=306|8=FIX.4.4|9=100|35=D|49=ClientB|56=TradingPlatform|52=20230608-07:34:40.138|38=433|11=17051745|54=2|44=14|40=2|59=0|10=143|8=FIX.4.4|9=96|35=8|49=TradingPlatform|56=ClientB|52=20230608-07:34:40.138|11=17051745|150=8|58=Missing Symbol|10=353|8=FIX.4.4|9=103|35=D|49=ClientC|56=TradingPlatform|52=20230608-07:34:43.249|38=879|55=AAPL|11=19901919|44=14|40=2|59=0|10=240|8=FIX.4.4|9=102|35=8|49=TradingPlatform|56=ClientC|52=20230608-07:34:43.249|55=AAPL|11=19901919|150=8|58=Missing Side|10=213|8=FIX.4.4|9=106|35=D|49=ClientB|56=TradingPlatform|52=20230608-07:34:43.883|38=905|55=AAPL|11=508827|54=2|44=37|40=2|59=0|10=347|8=FIX.4.4|9=101|35=8|49=TradingPlatform|56=ClientB|52=20230608-07:34:43.883|55=AAPL|11=508827|150=8|58=Invalid Price|10=194|8=FIX.4.4|9=95|35=F|49=ClientA|56=TradingPlatform|52=20230608-07:34:45.025|55=AAPL|11=8108868|41=4878022|54=2|10=257|8=FIX.4.4|9=146|35=8|49=TradingPlatform|56=ClientA|52=20230608-07:34:45.025|38=25|44=13|55=AAPL|11=4878022|41=4878022|150=4|17=45|39=4|54=2|40=2|59=0|58=Canceled|10=276|8=FIX.4.4|9=102|35=D|49=ClientB|56=TradingPlatform|52=20230608-07:34:49.589|38=904|55=AAPL|11=13422091|54=1|40=2|59=0|10=236|8=FIX.4.4|9=103|35=8|49=TradingPlatform|56=ClientB|52=20230608-07:34:49.589|55=AAPL|11=13422091|150=8|58=Invalid Price|10=166|8=FIX.4.4|9=106|35=D|49=ClientA|56=TradingPlatform|52=20230608-07:34:52.156|38=21|55=AAPL|11=2759337|54=1|44=13|40=2|59=0|10=287|8=FIX.4.4|9=130|35=8|49=TradingPlatform|56=ClientA|52=20230608-07:34:52.156|38=21|44=13|55=AAPL|11=2759337|150=0|17=46|39=0|54=1|40=2|59=0|58=New|10=260|8=FIX.4.4|9=158|35=8|49=TradingPlatform|56=ClientB|52=20230608-07:34:52.156|38=847|55=AAPL|11=11985881|17=47|880=13|150=F|39=2|54=2|40=2|59=0|32=9|31=12|151=0|14=847|58=Fill|10=359|8=FIX.4.4|9=155|35=8|49=TradingPlatform|56=ClientA|52=20230608-07:34:52.156|38=21|55=AAPL|11=2759337|17=48|880=13|150=F|39=1|54=1|40=2|59=0|32=9|31=12|151=12|14=9|58=Fill|10=279|8=FIX.4.4|9=107|35=D|49=ClientA|56=TradingPlatform|52=20230608-07:34:53.791|38=433|55=AAPL|11=8650521|54=2|44=15|40=2|59=0|10=314|8=FIX.4.4|9=131|35=8|49=TradingPlatform|56=ClientA|52=20230608-07:34:53.791|38=433|44=15|55=AAPL|11=8650521|150=0|17=49|39=0|54=2|40=2|59=0|58=New|10=346|8=FIX.4.4|9=107|35=D|49=ClientA|56=TradingPlatform|52=20230608-07:34:54.450|38=585|55=AAPL|11=8379780|54=1|44=17|40=2|59=0|10=112|8=FIX.4.4|9=131|35=8|49=TradingPlatform|56=ClientA|52=20230608-07:34:54.450|38=585|44=17|55=AAPL|11=8379780|150=0|17=50|39=0|54=1|40=2|59=0|58=New|10=239|8=FIX.4.4|9=159|35=8|49=TradingPlatform|56=ClientA|52=20230608-07:34:54.450|38=433|55=AAPL|11=8650521|17=51|880=14|150=F|39=2|54=2|40=2|59=0|32=433|31=15|151=0|14=433|58=Fill|10=259|8=FIX.4.4|9=161|35=8|49=TradingPlatform|56=ClientA|52=20230608-07:34:54.450|38=585|55=AAPL|11=8379780|17=52|880=14|150=F|39=1|54=1|40=2|59=0|32=433|31=15|151=152|14=433|58=Fill|10=161|8=FIX.4.4|9=161|35=8|49=TradingPlatform|56=ClientA|52=20230608-07:34:54.450|38=346|55=AAPL|11=3830711|17=53|880=15|150=F|39=1|54=2|40=2|59=0|32=152|31=16|151=194|14=152|58=Fill|10=300|8=FIX.4.4|9=159|35=8|49=TradingPlatform|56=ClientA|52=20230608-07:34:54.450|38=585|55=AAPL|11=8379780|17=54|880=15|150=F|39=2|54=1|40=2|59=0|32=152|31=16|151=0|14=585|58=Fill|10=142|8=FIX.4.4|9=107|35=D|49=ClientC|56=TradingPlatform|52=20230608-07:34:57.479|38=211|55=AAPL|11=7900442|54=2|44=10|40=2|59=0|10=325|8=FIX.4.4|9=131|35=8|49=TradingPlatform|56=ClientC|52=20230608-07:34:57.479|38=211|44=10|55=AAPL|11=7900442|150=0|17=55|39=0|54=2|40=2|59=0|58=New|10=113|8=FIX.4.4|9=159|35=8|49=TradingPlatform|56=ClientC|52=20230608-07:34:57.479|38=211|55=AAPL|11=7900442|17=56|880=16|150=F|39=1|54=2|40=2|59=0|32=12|31=13|151=199|14=12|58=Fill|10=282|8=FIX.4.4|9=156|35=8|49=TradingPlatform|56=ClientA|52=20230608-07:34:57.479|38=21|55=AAPL|11=2759337|17=57|880=16|150=F|39=2|54=1|40=2|59=0|32=12|31=13|151=0|14=21|58=Fill|10=293|8=FIX.4.4|9=159|35=8|49=TradingPlatform|56=ClientC|52=20230608-07:34:57.479|38=211|55=AAPL|11=7900442|17=58|880=17|150=F|39=2|54=2|40=2|59=0|32=199|31=10|151=0|14=211|58=Fill|10=149|8=FIX.4.4|9=160|35=8|49=TradingPlatform|56=ClientB|52=20230608-07:34:57.479|38=969|55=AAPL|11=984746|17=59|880=17|150=F|39=1|54=1|40=2|59=0|32=199|31=10|151=770|14=199|58=Fill|10=113|8=FIX.4.4|9=107|35=D|49=ClientC|56=TradingPlatform|52=20230608-07:34:58.218|38=724|55=AAPL|11=6757560|54=1|44=17|40=2|59=0|10=157|8=FIX.4.4|9=131|35=8|49=TradingPlatform|56=ClientC|52=20230608-07:34:58.218|38=724|44=17|55=AAPL|11=6757560|150=0|17=60|39=0|54=1|40=2|59=0|58=New|10=302|8=FIX.4.4|9=159|35=8|49=TradingPlatform|56=ClientA|52=20230608-07:34:58.218|38=346|55=AAPL|11=3830711|17=61|880=18|150=F|39=2|54=2|40=2|59=0|32=194|31=16|151=0|14=346|58=Fill|10=294|8=FIX.4.4|9=161|35=8|49=TradingPlatform|56=ClientC|52=20230608-07:34:58.218|38=724|55=AAPL|11=6757560|17=62|880=18|150=F|39=1|54=1|40=2|59=0|32=194|31=16|151=530|14=194|58=Fill|10=291|8=FIX.4.4|9=100|35=D|49=ClientC|56=TradingPlatform|52=20230608-07:35:01.856|38=214|11=12613106|54=1|44=16|40=2|59=0|10=356|8=FIX.4.4|9=96|35=8|49=TradingPlatform|56=ClientC|52=20230608-07:35:01.856|11=12613106|150=8|58=Missing Symbol|10=125|8=FIX.4.4|9=106|35=D|49=ClientC|56=TradingPlatform|52=20230608-07:35:05.149|38=903|55=AAPL|11=100155|54=1|44=18|40=2|59=0|10=341|8=FIX.4.4|9=130|35=8|49=TradingPlatform|56=ClientC|52=20230608-07:35:05.149|38=903|44=18|55=AAPL|11=100155|150=0|17=63|39=0|54=1|40=2|59=0|58=New|10=355|8=FIX.4.4|9=108|35=D|49=ClientA|56=TradingPlatform|52=20230608-07:35:08.744|38=922|55=AAPL|11=18661554|54=1|44=18|40=2|59=0|10=344|8=FIX.4.4|9=132|35=8|49=TradingPlatform|56=ClientA|52=20230608-07:35:08.744|38=922|44=18|55=AAPL|11=18661554|150=0|17=64|39=0|54=1|40=2|59=0|58=New|10=117|8=FIX.4.4|9=113|35=G|49=ClientA|56=TradingPlatform|52=20230608-07:35:10.766|38=171|55=AAPL|11=2098573|41=18661554|54=1|40=2|59=0|10=273|8=FIX.4.4|9=148|35=8|49=TradingPlatform|56=ClientA|52=20230608-07:35:10.766|38=171|44=18|55=AAPL|11=2098573|41=18661554|150=5|17=65|39=5|54=1|40=2|59=0|58=Replaced|10=328|8=FIX.4.4|9=94|35=F|49=ClientC|56=TradingPlatform|52=20230608-07:35:13.109|55=AAPL|11=218021|41=6757560|54=1|10=302|8=FIX.4.4|9=147|35=8|49=TradingPlatform|56=ClientC|52=20230608-07:35:13.109|38=724|44=17|55=AAPL|11=6757560|41=6757560|150=4|17=66|39=4|54=1|40=2|59=0|58=Canceled|10=177|8=FIX.4.4|9=95|35=F|49=ClientA|56=TradingPlatform|52=20230608-07:35:16.730|55=AAPL|11=1615895|41=2098573|54=1|10=343|8=FIX.4.4|9=147|35=8|49=TradingPlatform|56=ClientA|52=20230608-07:35:16.730|38=171|44=18|55=AAPL|11=2098573|41=2098573|150=4|17=67|39=4|54=1|40=2|59=0|58=Canceled|10=339|8=FIX.4.4|9=94|35=F|49=ClientC|56=TradingPlatform|52=20230608-07:35:16.873|55=AAPL|11=9138945|41=100155|54=1|10=275|8=FIX.4.4|9=145|35=8|49=TradingPlatform|56=ClientC|52=20230608-07:35:16.873|38=903|44=18|55=AAPL|11=100155|41=100155|150=4|17=68|39=4|54=1|40=2|59=0|58=Canceled|10=335|8=FIX.4.4|9=95|35=F|49=ClientA|56=TradingPlatform|52=20230608-07:35:17.824|55=AAPL|11=4355920|41=5372021|54=2|10=126|8=FIX.4.4|9=147|35=8|49=TradingPlatform|56=ClientA|52=20230608-07:35:17.824|38=603|44=19|55=AAPL|11=5372021|41=5372021|150=4|17=69|39=4|54=2|40=2|59=0|58=Canceled|10=198|8=FIX.4.4|9=85|35=F|49=ClientB|56=TradingPlatform|52=20230608-07:35:22.650|55=AAPL|11=12763034|54=2|10=116|8=FIX.4.4|9=109|35=8|49=TradingPlatform|56=ClientB|52=20230608-07:35:22.650|55=AAPL|11=12763034|150=8|58=Missing OrigClOrdID|10=132|8=FIX.4.4|9=94|35=F|49=ClientB|56=TradingPlatform|52=20230608-07:35:23.506|55=AAPL|11=4145863|41=984746|54=1|10=282|8=FIX.4.4|9=145|35=8|49=TradingPlatform|56=ClientB|52=20230608-07:35:23.506|38=969|44=10|55=AAPL|11=984746|41=984746|150=4|17=70|39=4|54=1|40=2|59=0|58=Canceled|10=255|8=FIX.4.4|9=108|35=D|49=ClientA|56=TradingPlatform|52=20230608-07:35:23.863|38=509|55=AAPL|11=15349426|54=1|44=14|40=2|59=0|10=340|8=FIX.4.4|9=132|35=8|49=TradingPlatform|56=ClientA|52=20230608-07:35:23.863|38=509|44=14|55=AAPL|11=15349426|150=0|17=71|39=0|54=1|40=2|59=0|58=New|10=230|8=FIX.4.4|9=107|35=D|49=ClientC|56=TradingPlatform|52=20230608-07:35:28.415|38=115|55=AAPL|11=5376717|54=2|44=19|40=2|59=0|10=239|8=FIX.4.4|9=131|35=8|49=TradingPlatform|56=ClientC|52=20230608-07:35:28.415|38=115|44=19|55=AAPL|11=5376717|150=0|17=72|39=0|54=2|40=2|59=0|58=New|10=307|8=FIX.4.4|9=107|35=D|49=ClientA|56=TradingPlatform|52=20230608-07:35:29.315|38=729|55=AAPL|11=3358585|54=1|44=18|40=2|59=0|10=299|8=FIX.4.4|9=131|35=8|49=TradingPlatform|56=ClientA|52=20230608-07:35:29.315|38=729|44=18|55=AAPL|11=3358585|150=0|17=73|39=0|54=1|40=2|59=0|58=New|10=320|8=FIX.4.4|9=108|35=D|49=ClientC|56=TradingPlatform|52=20230608-07:35:30.144|38=217|55=AAPL|11=15779380|54=2|44=10|40=2|59=0|10=339|8=FIX.4.4|9=132|35=8|49=TradingPlatform|56=ClientC|52=20230608-07:35:30.144|38=217|44=10|55=AAPL|11=15779380|150=0|17=74|39=0|54=2|40=2|59=0|58=New|10=107|8=FIX.4.4|9=160|35=8|49=TradingPlatform|56=ClientC|52=20230608-07:35:30.144|38=217|55=AAPL|11=15779380|17=75|880=19|150=F|39=2|54=2|40=2|59=0|32=217|31=18|151=0|14=217|58=Fill|10=289|8=FIX.4.4|9=161|35=8|49=TradingPlatform|56=ClientA|52=20230608-07:35:30.144|38=729|55=AAPL|11=3358585|17=76|880=19|150=F|39=1|54=1|40=2|59=0|32=217|31=18|151=512|14=217|58=Fill|10=101|8=FIX.4.4|9=108|35=D|49=ClientA|56=TradingPlatform|52=20230608-07:35:32.847|38=257|55=AAPL|11=11302984|54=2|44=16|40=2|59=0|10=239|8=FIX.4.4|9=132|35=8|49=TradingPlatform|56=ClientA|52=20230608-07:35:32.847|38=257|44=16|55=AAPL|11=11302984|150=0|17=77|39=0|54=2|40=2|59=0|58=New|10=320|8=FIX.4.4|9=160|35=8|49=TradingPlatform|56=ClientA|52=20230608-07:35:32.847|38=257|55=AAPL|11=11302984|17=78|880=20|150=F|39=2|54=2|40=2|59=0|32=257|31=18|151=0|14=257|58=Fill|10=124|8=FIX.4.4|9=161|35=8|49=TradingPlatform|56=ClientA|52=20230608-07:35:32.847|38=729|55=AAPL|11=3358585|17=79|880=20|150=F|39=1|54=1|40=2|59=0|32=257|31=18|151=255|14=474|58=Fill|10=316|8=FIX.4.4|9=96|35=F|49=ClientA|56=TradingPlatform|52=20230608-07:35:34.189|55=AAPL|11=17393409|41=3358585|54=1|10=177|8=FIX.4.4|9=147|35=8|49=TradingPlatform|56=ClientA|52=20230608-07:35:34.189|38=729|44=18|55=AAPL|11=3358585|41=3358585|150=4|17=80|39=4|54=1|40=2|59=0|58=Canceled|10=132|8=FIX.4.4|9=97|35=F|49=ClientA|56=TradingPlatform|52=20230608-07:35:36.290|55=AAPL|11=18473995|41=15349426|54=1|10=276|8=FIX.4.4|9=149|35=8|49=TradingPlatform|56=ClientA|52=20230608-07:35:36.290|38=509|44=14|55=AAPL|11=15349426|41=15349426|150=4|17=81|39=4|54=1|40=2|59=0|58=Canceled|10=234|8=FIX.4.4|9=96|35=F|49=ClientC|56=TradingPlatform|52=20230608-07:35:39.070|55=AAPL|11=16754115|41=5376717|54=2|10=363|8=FIX.4.4|9=147|35=8|49=TradingPlatform|56=ClientC|52=20230608-07:35:39.070|38=115|44=19|55=AAPL|11=5376717|41=5376717|150=4|17=82|39=4|54=2|40=2|59=0|58=Canceled|10=339|8=FIX.4.4|9=106|35=D|49=ClientB|56=TradingPlatform|52=20230608-07:35:41.111|38=-31|55=AAPL|11=573386|54=1|44=13|40=2|59=0|10=203|8=FIX.4.4|9=99|35=8|49=TradingPlatform|56=ClientB|52=20230608-07:35:41.111|55=AAPL|11=573386|150=8|58=Invalid Qty|10=160|8=FIX.4.4|9=100|35=G|49=ClientA|56=TradingPlatform|52=20230608-07:35:43.241|55=AAPL|11=9341944|54=1|44=16|40=2|59=0|10=155|8=FIX.4.4|9=108|35=8|49=TradingPlatform|56=ClientA|52=20230608-07:35:43.241|55=AAPL|11=9341944|150=8|58=Missing OrigClOrdID|10=105|8=FIX.4.4|9=108|35=D|49=ClientA|56=TradingPlatform|52=20230608-07:35:44.389|38=739|55=AAPL|11=18922347|54=2|44=18|40=2|59=0|10=249|8=FIX.4.4|9=132|35=8|49=TradingPlatform|56=ClientA|52=20230608-07:35:44.389|38=739|44=18|55=AAPL|11=18922347|150=0|17=83|39=0|54=2|40=2|59=0|58=New|10=249|8=FIX.4.4|9=112|35=G|49=ClientA|56=TradingPlatform|52=20230608-07:35:47.501|55=AAPL|11=1736718|41=18922347|54=2|44=19|40=2|59=0|10=303|8=FIX.4.4|9=148|35=8|49=TradingPlatform|56=ClientA|52=20230608-07:35:47.501|38=739|44=19|55=AAPL|11=1736718|41=18922347|150=5|17=84|39=5|54=2|40=2|59=0|58=Replaced|10=235|8=FIX.4.4|9=100|35=D|49=ClientA|56=TradingPlatform|52=20230608-07:35:47.689|38=837|11=18654648|54=1|44=14|40=2|59=0|10=285|8=FIX.4.4|9=96|35=8|49=TradingPlatform|56=ClientA|52=20230608-07:35:47.689|11=18654648|150=8|58=Missing Symbol|10=112|8=FIX.4.4|9=106|35=G|49=ClientB|56=TradingPlatform|52=20230608-07:35:47.861|55=AAPL|11=6619044|41=4718473|44=20|40=2|59=0|10=226|8=FIX.4.4|9=101|35=8|49=TradingPlatform|56=ClientB|52=20230608-07:35:47.861|55=AAPL|11=6619044|150=8|58=Missing Side|10=303|8=FIX.4.4|9=108|35=D|49=ClientB|56=TradingPlatform|52=20230608-07:35:51.183|38=964|55=AAPL|11=16710459|54=1|44=61|40=2|59=0|10=142|8=FIX.4.4|9=103|35=8|49=TradingPlatform|56=ClientB|52=20230608-07:35:51.183|55=AAPL|11=16710459|150=8|58=Invalid Price|10=218|8=FIX.4.4|9=108|35=D|49=ClientB|56=TradingPlatform|52=20230608-07:35:52.483|38=604|55=AAPL|11=11417827|54=2|44=13|40=2|59=0|10=173|8=FIX.4.4|9=132|35=8|49=TradingPlatform|56=ClientB|52=20230608-07:35:52.483|38=604|44=13|55=AAPL|11=11417827|150=0|17=85|39=0|54=2|40=2|59=0|58=New|10=183|8=FIX.4.4|9=108|35=D|49=ClientB|56=TradingPlatform|52=20230608-07:35:55.572|38=820|55=AAPL|11=14211815|54=2|44=10|40=2|59=0|10=299|8=FIX.4.4|9=132|35=8|49=TradingPlatform|56=ClientB|52=20230608-07:35:55.572|38=820|44=10|55=AAPL|11=14211815|150=0|17=86|39=0|54=2|40=2|59=0|58=New|10=262|8=FIX.4.4|9=107|35=D|49=ClientA|56=TradingPlatform|52=20230608-07:35:56.345|38=18|55=AAPL|11=15242651|54=1|44=14|40=2|59=0|10=268|8=FIX.4.4|9=131|35=8|49=TradingPlatform|56=ClientA|52=20230608-07:35:56.345|38=18|44=14|55=AAPL|11=15242651|150=0|17=87|39=0|54=1|40=2|59=0|58=New|10=349|8=FIX.4.4|9=160|35=8|49=TradingPlatform|56=ClientB|52=20230608-07:35:56.345|38=820|55=AAPL|11=14211815|17=88|880=21|150=F|39=1|54=2|40=2|59=0|32=18|31=10|151=802|14=18|58=Fill|10=211|8=FIX.4.4|9=157|35=8|49=TradingPlatform|56=ClientA|52=20230608-07:35:56.345|38=18|55=AAPL|11=15242651|17=89|880=21|150=F|39=2|54=1|40=2|59=0|32=18|31=10|151=0|14=18|58=Fill|10=304|8=FIX.4.4|9=102|35=G|49=ClientC|56=TradingPlatform|52=20230608-07:35:59.804|38=735|55=AAPL|11=14430601|54=1|40=2|59=0|10=291|8=FIX.4.4|9=109|35=8|49=TradingPlatform|56=ClientC|52=20230608-07:35:59.804|55=AAPL|11=14430601|150=8|58=Missing OrigClOrdID|10=202|8=FIX.4.4|9=106|35=D|49=ClientC|56=TradingPlatform|52=20230608-07:35:59.974|38=69|55=AAPL|11=3508946|54=1|44=11|40=2|59=0|10=188|8=FIX.4.4|9=130|35=8|49=TradingPlatform|56=ClientC|52=20230608-07:35:59.974|38=69|44=11|55=AAPL|11=3508946|150=0|17=90|39=0|54=1|40=2|59=0|58=New|10=125|8=FIX.4.4|9=160|35=8|49=TradingPlatform|56=ClientB|52=20230608-07:35:59.974|38=820|55=AAPL|11=14211815|17=91|880=22|150=F|39=1|54=2|40=2|59=0|32=69|31=10|151=733|14=87|58=Fill|10=284|8=FIX.4.4|9=156|35=8|49=TradingPlatform|56=ClientC|52=20230608-07:35:59.974|38=69|55=AAPL|11=3508946|17=92|880=22|150=F|39=2|54=1|40=2|59=0|32=69|31=10|151=0|14=69|58=Fill|10=274|8=FIX.4.4|9=108|35=D|49=ClientA|56=TradingPlatform|52=20230608-07:36:02.499|38=920|55=AAPL|11=17031441|54=2|44=20|40=2|59=0|10=268|8=FIX.4.4|9=132|35=8|49=TradingPlatform|56=ClientA|52=20230608-07:36:02.499|38=920|44=20|55=AAPL|11=17031441|150=0|17=93|39=0|54=2|40=2|59=0|58=New|10=254|8=FIX.4.4|9=108|35=D|49=ClientC|56=TradingPlatform|52=20230608-07:36:06.855|38=534|55=AAPL|11=15317322|54=2|44=10|40=2|59=0|10=133|8=FIX.4.4|9=132|35=8|49=TradingPlatform|56=ClientC|52=20230608-07:36:06.855|38=534|44=10|55=AAPL|11=15317322|150=0|17=94|39=0|54=2|40=2|59=0|58=New|10=346|8=FIX.4.4|9=109|35=D|49=ClientA|56=TradingPlatform|52=20230608-07:36:09.608|38=6806|55=AAPL|11=13718827|54=1|44=11|40=2|59=0|10=344|8=FIX.4.4|9=101|35=8|49=TradingPlatform|56=ClientA|52=20230608-07:36:09.608|55=AAPL|11=13718827|150=8|58=Invalid Qty|10=293|8=FIX.4.4|9=108|35=D|49=ClientA|56=TradingPlatform|52=20230608-07:36:09.906|38=733|55=AAPL|11=16218046|54=2|44=12|40=2|59=0|10=345|8=FIX.4.4|9=132|35=8|49=TradingPlatform|56=ClientA|52=20230608-07:36:09.906|38=733|44=12|55=AAPL|11=16218046|150=0|17=95|39=0|54=2|40=2|59=0|58=New|10=186|8=FIX.4.4|9=107|35=D|49=ClientC|56=TradingPlatform|52=20230608-07:36:10.305|38=527|55=AAPL|11=5837401|54=1|44=14|40=2|59=0|10=175|8=FIX.4.4|9=131|35=8|49=TradingPlatform|56=ClientC|52=20230608-07:36:10.305|38=527|44=14|55=AAPL|11=5837401|150=0|17=96|39=0|54=1|40=2|59=0|58=New|10=124|8=FIX.4.4|9=160|35=8|49=TradingPlatform|56=ClientC|52=20230608-07:36:10.305|38=534|55=AAPL|11=15317322|17=97|880=23|150=F|39=1|54=2|40=2|59=0|32=527|31=10|151=7|14=527|58=Fill|10=276|8=FIX.4.4|9=159|35=8|49=TradingPlatform|56=ClientC|52=20230608-07:36:10.305|38=527|55=AAPL|11=5837401|17=98|880=23|150=F|39=2|54=1|40=2|59=0|32=527|31=10|151=0|14=527|58=Fill|10=316|8=FIX.4.4|9=107|35=D|49=ClientA|56=TradingPlatform|52=20230608-07:36:12.237|38=775|55=AAPL|11=3687822|54=1|44=16|40=2|59=0|10=154|8=FIX.4.4|9=131|35=8|49=TradingPlatform|56=ClientA|52=20230608-07:36:12.237|38=775|44=16|55=AAPL|11=3687822|150=0|17=99|39=0|54=1|40=2|59=0|58=New|10=209|8=FIX.4.4|9=159|35=8|49=TradingPlatform|56=ClientC|52=20230608-07:36:12.237|38=534|55=AAPL|11=15317322|17=100|880=24|150=F|39=2|54=2|40=2|59=0|32=7|31=10|151=0|14=534|58=Fill|10=298|8=FIX.4.4|9=158|35=8|49=TradingPlatform|56=ClientA|52=20230608-07:36:12.237|38=775|55=AAPL|11=3687822|17=101|880=24|150=F|39=1|54=1|40=2|59=0|32=7|31=10|151=768|14=7|58=Fill|10=191|8=FIX.4.4|9=161|35=8|49=TradingPlatform|56=ClientB|52=20230608-07:36:12.237|38=820|55=AAPL|11=14211815|17=102|880=25|150=F|39=2|54=2|40=2|59=0|32=733|31=10|151=0|14=820|58=Fill|10=122|8=FIX.4.4|9=161|35=8|49=TradingPlatform|56=ClientA|52=20230608-07:36:12.237|38=775|55=AAPL|11=3687822|17=103|880=25|150=F|39=1|54=1|40=2|59=0|32=733|31=10|151=35|14=740|58=Fill|10=264|8=FIX.4.4|9=161|35=8|49=TradingPlatform|56=ClientA|52=20230608-07:36:12.237|38=733|55=AAPL|11=16218046|17=104|880=26|150=F|39=1|54=2|40=2|59=0|32=35|31=12|151=698|14=35|58=Fill|10=293|8=FIX.4.4|9=159|35=8|49=TradingPlatform|56=ClientA|52=20230608-07:36:12.237|38=775|55=AAPL|11=3687822|17=105|880=26|150=F|39=2|54=1|40=2|59=0|32=35|31=12|151=0|14=775|58=Fill|10=147|8=FIX.4.4|9=107|35=D|49=ClientA|56=TradingPlatform|52=20230608-07:36:13.999|38=755|55=AAPL|11=2014595|54=2|44=12|40=2|59=0|10=337|8=FIX.4.4|9=132|35=8|49=TradingPlatform|56=ClientA|52=20230608-07:36:13.999|38=755|44=12|55=AAPL|11=2014595|150=0|17=106|39=0|54=2|40=2|59=0|58=New|10=342|8=FIX.4.4|9=108|35=D|49=ClientC|56=TradingPlatform|52=20230608-07:36:14.707|38=708|55=AAPL|11=13690556|54=2|44=20|40=2|59=0|10=325|8=FIX.4.4|9=133|35=8|49=TradingPlatform|56=ClientC|52=20230608-07:36:14.707|38=708|44=20|55=AAPL|11=13690556|150=0|17=107|39=0|54=2|40=2|59=0|58=New|10=330|8=FIX.4.4|9=113|35=G|49=ClientC|56=TradingPlatform|52=20230608-07:36:17.289|38=903|55=AAPL|11=2584136|41=13690556|54=2|40=2|59=0|10=317|8=FIX.4.4|9=149|35=8|49=TradingPlatform|56=ClientC|52=20230608-07:36:17.289|38=903|44=20|55=AAPL|11=2584136|41=13690556|150=5|17=108|39=5|54=2|40=2|59=0|58=Replaced|10=332|8=FIX.4.4|9=112|35=G|49=ClientB|56=TradingPlatform|52=20230608-07:36:18.814|55=AAPL|11=3796763|41=11417827|54=2|44=11|40=2|59=0|10=341|8=FIX.4.4|9=149|35=8|49=TradingPlatform|56=ClientB|52=20230608-07:36:18.814|38=604|44=11|55=AAPL|11=3796763|41=11417827|150=5|17=109|39=5|54=2|40=2|59=0|58=Replaced|10=203|8=FIX.4.4|9=108|35=D|49=ClientA|56=TradingPlatform|52=20230608-07:36:20.124|38=203|55=AAPL|11=12778686|54=1|44=17|40=2|59=0|10=115|8=FIX.4.4|9=133|35=8|49=TradingPlatform|56=ClientA|52=20230608-07:36:20.124|38=203|44=17|55=AAPL|11=12778686|150=0|17=110|39=0|54=1|40=2|59=0|58=New|10=140|8=FIX.4.4|9=162|35=8|49=TradingPlatform|56=ClientB|52=20230608-07:36:20.124|38=604|55=AAPL|11=3796763|17=111|880=27|150=F|39=1|54=2|40=2|59=0|32=203|31=11|151=401|14=203|58=Fill|10=125|8=FIX.4.4|9=161|35=8|49=TradingPlatform|56=ClientA|52=20230608-07:36:20.124|38=203|55=AAPL|11=12778686|17=112|880=27|150=F|39=2|54=1|40=2|59=0|32=203|31=11|151=0|14=203|58=Fill|10=297|8=FIX.4.4|9=107|35=D|49=ClientB|56=TradingPlatform|52=20230608-07:36:24.667|38=797|55=AAPL|11=1713038|54=1|44=10|40=2|59=0|10=332|8=FIX.4.4|9=132|35=8|49=TradingPlatform|56=ClientB|52=20230608-07:36:24.667|38=797|44=10|55=AAPL|11=1713038|150=0|17=113|39=0|54=1|40=2|59=0|58=New|10=307|8=FIX.4.4|9=107|35=D|49=ClientB|56=TradingPlatform|52=20230608-07:36:24.939|38=507|55=AAPL|11=6396888|54=1|44=20|40=2|59=0|10=144|8=FIX.4.4|9=132|35=8|49=TradingPlatform|56=ClientB|52=20230608-07:36:24.939|38=507|44=20|55=AAPL|11=6396888|150=0|17=114|39=0|54=1|40=2|59=0|58=New|10=227|8=FIX.4.4|9=160|35=8|49=TradingPlatform|56=ClientB|52=20230608-07:36:24.939|38=604|55=AAPL|11=3796763|17=115|880=28|150=F|39=2|54=2|40=2|59=0|32=401|31=11|151=0|14=604|58=Fill|10=164|8=FIX.4.4|9=162|35=8|49=TradingPlatform|56=ClientB|52=20230608-07:36:24.939|38=507|55=AAPL|11=6396888|17=116|880=28|150=F|39=1|54=1|40=2|59=0|32=401|31=11|151=106|14=401|58=Fill|10=213|8=FIX.4.4|9=163|35=8|49=TradingPlatform|56=ClientA|52=20230608-07:36:24.939|38=733|55=AAPL|11=16218046|17=117|880=29|150=F|39=1|54=2|40=2|59=0|32=106|31=12|151=592|14=141|58=Fill|10=245|8=FIX.4.4|9=160|35=8|49=TradingPlatform|56=ClientB|52=20230608-07:36:24.939|38=507|55=AAPL|11=6396888|17=118|880=29|150=F|39=2|54=1|40=2|59=0|32=106|31=12|151=0|14=507|58=Fill|10=306|8=FIX.4.4|9=106|35=D|49=ClientD|56=TradingPlatform|52=20230608-07:36:27.594|38=148|55=AAPL|11=917063|54=2|44=15|40=2|59=0|10=154|8=FIX.4.4|9=102|35=8|49=TradingPlatform|56=ClientD|52=20230608-07:36:27.594|55=AAPL|11=917063|150=8|58=Invalid Client|10=107|8=FIX.4.4|9=107|35=D|49=ClientA|56=TradingPlatform|52=20230608-07:36:28.371|38=829|55=AAPL|11=3757073|54=2|44=19|40=2|59=0|10=117|8=FIX.4.4|9=132|35=8|49=TradingPlatform|56=ClientA|52=20230608-07:36:28.371|38=829|44=19|55=AAPL|11=3757073|150=0|17=119|39=0|54=2|40=2|59=0|58=New|10=109|8=FIX.4.4|9=107|35=D|49=ClientA|56=TradingPlatform|52=20230608-07:36:33.297|38=889|55=AAPL|11=8127898|54=1|44=10|40=2|59=0|10=252|8=FIX.4.4|9=132|35=8|49=TradingPlatform|56=ClientA|52=20230608-07:36:33.297|38=889|44=10|55=AAPL|11=8127898|150=0|17=120|39=0|54=1|40=2|59=0|58=New|10=218|8=FIX.4.4|9=107|35=D|49=ClientC|56=TradingPlatform|52=20230608-07:36:33.351|38=709|55=AAPL|11=7842251|54=1|44=12|40=2|59=0|10=181|8=FIX.4.4|9=132|35=8|49=TradingPlatform|56=ClientC|52=20230608-07:36:33.351|38=709|44=12|55=AAPL|11=7842251|150=0|17=121|39=0|54=1|40=2|59=0|58=New|10=125|8=FIX.4.4|9=161|35=8|49=TradingPlatform|56=ClientA|52=20230608-07:36:33.351|38=733|55=AAPL|11=16218046|17=122|880=30|150=F|39=2|54=2|40=2|59=0|32=592|31=12|151=0|14=733|58=Fill|10=133|8=FIX.4.4|9=162|35=8|49=TradingPlatform|56=ClientC|52=20230608-07:36:33.351|38=709|55=AAPL|11=7842251|17=123|880=30|150=F|39=1|54=1|40=2|59=0|32=592|31=12|151=117|14=592|58=Fill|10=118|8=FIX.4.4|9=162|35=8|49=TradingPlatform|56=ClientA|52=20230608-07:36:33.351|38=755|55=AAPL|11=2014595|17=124|880=31|150=F|39=1|54=2|40=2|59=0|32=117|31=12|151=638|14=117|58=Fill|10=349|8=FIX.4.4|9=160|35=8|49=TradingPlatform|56=ClientC|52=20230608-07:36:33.351|38=709|55=AAPL|11=7842251|17=125|880=31|150=F|39=2|54=1|40=2|59=0|32=117|31=12|151=0|14=709|58=Fill|10=154|8=FIX.4.4|9=107|35=D|49=ClientC|56=TradingPlatform|52=20230608-07:36:34.226|38=948|55=AAPL|11=13096154|54=1|44=9|40=2|59=0|10=246|8=FIX.4.4|9=103|35=8|49=TradingPlatform|56=ClientC|52=20230608-07:36:34.226|55=AAPL|11=13096154|150=8|58=Invalid Price|10=326|8=FIX.4.4|9=106|35=D|49=ClientA|56=TradingPlatform|52=20230608-07:36:36.069|38=18|55=AAPL|11=4842005|54=2|44=15|40=2|59=0|10=148|8=FIX.4.4|9=131|35=8|49=TradingPlatform|56=ClientA|52=20230608-07:36:36.069|38=18|44=15|55=AAPL|11=4842005|150=0|17=126|39=0|54=2|40=2|59=0|58=New|10=271|8=FIX.4.4|9=107|35=D|49=ClientA|56=TradingPlatform|52=20230608-07:36:40.479|38=757|55=AAPL|11=3523655|54=2|44=14|40=2|59=0|10=305|8=FIX.4.4|9=132|35=8|49=TradingPlatform|56=ClientA|52=20230608-07:36:40.479|38=757|44=14|55=AAPL|11=3523655|150=0|17=127|39=0|54=2|40=2|59=0|58=New|10=279|8=FIX.4.4|9=95|35=F|49=ClientA|56=TradingPlatform|52=20230608-07:36:43.788|55=AAPL|11=2305330|41=2014595|54=2|10=218|8=FIX.4.4|9=148|35=8|49=TradingPlatform|56=ClientA|52=20230608-07:36:43.788|38=755|44=12|55=AAPL|11=2014595|41=2014595|150=4|17=128|39=4|54=2|40=2|59=0|58=Canceled|10=299|8=FIX.4.4|9=113|35=G|49=ClientC|56=TradingPlatform|52=20230608-07:36:47.215|38=122|55=AAPL|11=10953962|41=2584136|54=2|40=2|59=0|10=106|8=FIX.4.4|9=149|35=8|49=TradingPlatform|56=ClientC|52=20230608-07:36:47.215|38=122|44=20|55=AAPL|11=10953962|41=2584136|150=5|17=129|39=5|54=2|40=2|59=0|58=Replaced|10=146|8=FIX.4.4|9=108|35=D|49=ClientC|56=TradingPlatform|52=20230608-07:36:51.852|38=204|55=AAPL|11=11848678|54=1|44=11|40=2|59=0|10=142|8=FIX.4.4|9=133|35=8|49=TradingPlatform|56=ClientC|52=20230608-07:36:51.852|38=204|44=11|55=AAPL|11=11848678|150=0|17=130|39=0|54=1|40=2|59=0|58=New|10=205|8=FIX.4.4|9=107|35=D|49=ClientA|56=TradingPlatform|52=20230608-07:36:55.798|38=681|55=AAPL|11=8329681|54=2|44=19|40=2|59=0|10=303|8=FIX.4.4|9=132|35=8|49=TradingPlatform|56=ClientA|52=20230608-07:36:55.798|38=681|44=19|55=AAPL|11=8329681|150=0|17=131|39=0|54=2|40=2|59=0|58=New|10=361|8=FIX.4.4|9=108|35=D|49=ClientC|56=TradingPlatform|52=20230608-07:36:58.173|38=934|55=AAPL|11=13991553|54=2|44=14|40=2|59=0|10=220|8=FIX.4.4|9=133|35=8|49=TradingPlatform|56=ClientC|52=20230608-07:36:58.173|38=934|44=14|55=AAPL|11=13991553|150=0|17=132|39=0|54=2|40=2|59=0|58=New|10=302|8=FIX.4.4|9=96|35=F|49=ClientC|56=TradingPlatform|52=20230608-07:37:01.647|55=AAPL|11=9370520|41=11848678|54=1|10=175|8=FIX.4.4|9=150|35=8|49=TradingPlatform|56=ClientC|52=20230608-07:37:01.647|38=204|44=11|55=AAPL|11=11848678|41=11848678|150=4|17=133|39=4|54=1|40=2|59=0|58=Canceled|10=116|8=FIX.4.4|9=106|35=D|49=ClientC|56=TradingPlatform|52=20230608-07:37:04.668|38=37|55=AAPL|11=7503139|54=2|44=13|40=2|59=0|10=209|8=FIX.4.4|9=131|35=8|49=TradingPlatform|56=ClientC|52=20230608-07:37:04.668|38=37|44=13|55=AAPL|11=7503139|150=0|17=134|39=0|54=2|40=2|59=0|58=New|10=241|8=FIX.4.4|9=113|35=G|49=ClientA|56=TradingPlatform|52=20230608-07:37:07.133|38=500|55=AAPL|11=17875814|41=3523655|54=2|40=2|59=0|10=151|8=FIX.4.4|9=149|35=8|49=TradingPlatform|56=ClientA|52=20230608-07:37:07.133|38=500|44=14|55=AAPL|11=17875814|41=3523655|150=5|17=135|39=5|54=2|40=2|59=0|58=Replaced|10=207|8=FIX.4.4|9=119|35=G|49=ClientB|56=TradingPlatform|52=20230608-07:37:11.674|38=382|55=AAPL|11=10847585|41=1713038|54=1|44=16|40=2|59=0|10=255|8=FIX.4.4|9=149|35=8|49=TradingPlatform|56=ClientB|52=20230608-07:37:11.674|38=382|44=16|55=AAPL|11=10847585|41=1713038|150=5|17=136|39=5|54=1|40=2|59=0|58=Replaced|10=297|8=FIX.4.4|9=157|35=8|49=TradingPlatform|56=ClientC|52=20230608-07:37:11.674|38=37|55=AAPL|11=7503139|17=137|880=32|150=F|39=2|54=2|40=2|59=0|32=37|31=13|151=0|14=37|58=Fill|10=221|8=FIX.4.4|9=161|35=8|49=TradingPlatform|56=ClientB|52=20230608-07:37:11.674|38=382|55=AAPL|11=10847585|17=138|880=32|150=F|39=1|54=1|40=2|59=0|32=37|31=13|151=345|14=37|58=Fill|10=255|8=FIX.4.4|9=163|35=8|49=TradingPlatform|56=ClientA|52=20230608-07:37:11.674|38=500|55=AAPL|11=17875814|17=139|880=33|150=F|39=1|54=2|40=2|59=0|32=345|31=14|151=155|14=345|58=Fill|10=243|8=FIX.4.4|9=161|35=8|49=TradingPlatform|56=ClientB|52=20230608-07:37:11.674|38=382|55=AAPL|11=10847585|17=140|880=33|150=F|39=2|54=1|40=2|59=0|32=345|31=14|151=0|14=382|58=Fill|10=173|8=FIX.4.4|9=103|35=D|49=ClientB|56=TradingPlatform|52=20230608-07:37:12.593|38=568|55=AAPL|11=16837413|44=12|40=2|59=0|10=331|8=FIX.4.4|9=102|35=8|49=TradingPlatform|56=ClientB|52=20230608-07:37:12.593|55=AAPL|11=16837413|150=8|58=Missing Side|10=118|8=FIX.4.4|9=107|35=D|49=ClientB|56=TradingPlatform|52=20230608-07:37:14.292|38=397|55=AAPL|11=6649760|54=1|44=16|40=2|59=0|10=266|8=FIX.4.4|9=132|35=8|49=TradingPlatform|56=ClientB|52=20230608-07:37:14.292|38=397|44=16|55=AAPL|11=6649760|150=0|17=141|39=0|54=1|40=2|59=0|58=New|10=209|8=FIX.4.4|9=161|35=8|49=TradingPlatform|56=ClientA|52=20230608-07:37:14.292|38=500|55=AAPL|11=17875814|17=142|880=34|150=F|39=2|54=2|40=2|59=0|32=155|31=14|151=0|14=500|58=Fill|10=256|8=FIX.4.4|9=162|35=8|49=TradingPlatform|56=ClientB|52=20230608-07:37:14.292|38=397|55=AAPL|11=6649760|17=143|880=34|150=F|39=1|54=1|40=2|59=0|32=155|31=14|151=242|14=155|58=Fill|10=210|8=FIX.4.4|9=163|35=8|49=TradingPlatform|56=ClientC|52=20230608-07:37:14.292|38=934|55=AAPL|11=13991553|17=144|880=35|150=F|39=1|54=2|40=2|59=0|32=242|31=14|151=692|14=242|58=Fill|10=319|8=FIX.4.4|9=160|35=8|49=TradingPlatform|56=ClientB|52=20230608-07:37:14.292|38=397|55=AAPL|11=6649760|17=145|880=35|150=F|39=2|54=1|40=2|59=0|32=242|31=14|151=0|14=397|58=Fill|10=292|8=FIX.4.4|9=108|35=D|49=ClientC|56=TradingPlatform|52=20230608-07:37:18.862|38=645|55=AAPL|11=14897983|54=1|44=20|40=2|59=0|10=175|8=FIX.4.4|9=133|35=8|49=TradingPlatform|56=ClientC|52=20230608-07:37:18.862|38=645|44=20|55=AAPL|11=14897983|150=0|17=146|39=0|54=1|40=2|59=0|58=New|10=243|8=FIX.4.4|9=162|35=8|49=TradingPlatform|56=ClientC|52=20230608-07:37:18.862|38=934|55=AAPL|11=13991553|17=147|880=36|150=F|39=1|54=2|40=2|59=0|32=645|31=14|151=47|14=887|58=Fill|10=121|8=FIX.4.4|9=161|35=8|49=TradingPlatform|56=ClientC|52=20230608-07:37:18.862|38=645|55=AAPL|11=14897983|17=148|880=36|150=F|39=2|54=1|40=2|59=0|32=645|31=14|151=0|14=645|58=Fill|10=181|8=FIX.4.4|9=118|35=G|49=ClientA|56=TradingPlatform|52=20230608-07:37:20.942|38=234|55=AAPL|11=2236311|41=3757073|54=2|44=19|40=2|59=0|10=142|8=FIX.4.4|9=148|35=8|49=TradingPlatform|56=ClientA|52=20230608-07:37:20.942|38=234|44=19|55=AAPL|11=2236311|41=3757073|150=5|17=149|39=5|54=2|40=2|59=0|58=Replaced|10=264|8=FIX.4.4|9=108|35=D|49=ClientC|56=TradingPlatform|52=20230608-07:37:22.709|38=749|55=AAPL|11=12336503|54=2|44=11|40=2|59=0|10=185|8=FIX.4.4|9=133|35=8|49=TradingPlatform|56=ClientC|52=20230608-07:37:22.709|38=749|44=11|55=AAPL|11=12336503|150=0|17=150|39=0|54=2|40=2|59=0|58=New|10=358|8=FIX.4.4|9=119|35=G|49=ClientA|56=TradingPlatform|52=20230608-07:37:26.690|38=571|55=AAPL|11=19446475|41=8127898|54=1|44=11|40=2|59=0|10=308|8=FIX.4.4|9=149|35=8|49=TradingPlatform|56=ClientA|52=20230608-07:37:26.690|38=571|44=11|55=AAPL|11=19446475|41=8127898|150=5|17=151|39=5|54=1|40=2|59=0|58=Replaced|10=112|8=FIX.4.4|9=163|35=8|49=TradingPlatform|56=ClientC|52=20230608-07:37:26.690|38=749|55=AAPL|11=12336503|17=152|880=37|150=F|39=1|54=2|40=2|59=0|32=571|31=11|151=178|14=571|58=Fill|10=275|8=FIX.4.4|9=161|35=8|49=TradingPlatform|56=ClientA|52=20230608-07:37:26.690|38=571|55=AAPL|11=19446475|17=153|880=37|150=F|39=2|54=1|40=2|59=0|32=571|31=11|151=0|14=571|58=Fill|10=201|8=FIX.4.4|9=85|35=F|49=ClientA|56=TradingPlatform|52=20230608-07:37:29.960|55=AAPL|11=12604092|54=1|10=349|8=FIX.4.4|9=109|35=8|49=TradingPlatform|56=ClientA|52=20230608-07:37:29.960|55=AAPL|11=12604092|150=8|58=Missing OrigClOrdID|10=126|8=FIX.4.4|9=101|35=G|49=ClientC|56=TradingPlatform|52=20230608-07:37:34.522|38=763|55=AAPL|11=4155229|54=1|40=2|59=0|10=291|8=FIX.4.4|9=108|35=8|49=TradingPlatform|56=ClientC|52=20230608-07:37:34.522|55=AAPL|11=4155229|150=8|58=Missing OrigClOrdID|10=222|8=FIX.4.4|9=108|35=D|49=ClientD|56=TradingPlatform|52=20230608-07:37:36.672|38=844|55=AAPL|11=10761428|54=2|44=16|40=2|59=0|10=184|8=FIX.4.4|9=104|35=8|49=TradingPlatform|56=ClientD|52=20230608-07:37:36.672|55=AAPL|11=10761428|150=8|58=Invalid Client|10=252|8=FIX.4.4|9=108|35=D|49=ClientC|56=TradingPlatform|52=20230608-07:37:40.979|38=186|55=AAPL|11=11791234|54=1|44=12|40=2|59=0|10=168|8=FIX.4.4|9=133|35=8|49=TradingPlatform|56=ClientC|52=20230608-07:37:40.979|38=186|44=12|55=AAPL|11=11791234|150=0|17=154|39=0|54=1|40=2|59=0|58=New|10=174|8=FIX.4.4|9=161|35=8|49=TradingPlatform|56=ClientC|52=20230608-07:37:40.979|38=749|55=AAPL|11=12336503|17=155|880=38|150=F|39=2|54=2|40=2|59=0|32=178|31=11|151=0|14=749|58=Fill|10=254|8=FIX.4.4|9=161|35=8|49=TradingPlatform|56=ClientC|52=20230608-07:37:40.979|38=186|55=AAPL|11=11791234|17=156|880=38|150=F|39=1|54=1|40=2|59=0|32=178|31=11|151=8|14=178|58=Fill|10=253|8=FIX.4.4|9=114|35=G|49=ClientC|56=TradingPlatform|52=20230608-07:37:45.803|38=963|55=AAPL|11=17677360|41=11791234|54=1|40=2|59=0|10=295|8=FIX.4.4|9=150|35=8|49=TradingPlatform|56=ClientC|52=20230608-07:37:45.803|38=963|44=12|55=AAPL|11=17677360|41=11791234|150=5|17=157|39=5|54=1|40=2|59=0|58=Replaced|10=294|8=FIX.4.4|9=107|35=D|49=ClientB|56=TradingPlatform|52=20230608-07:37:48.973|38=789|55=AAPL|11=3112137|54=1|44=70|40=2|59=0|10=272|8=FIX.4.4|9=102|35=8|49=TradingPlatform|56=ClientB|52=20230608-07:37:48.973|55=AAPL|11=3112137|150=8|58=Invalid Price|10=310|8=FIX.4.4|9=106|35=D|49=ClientC|56=TradingPlatform|52=20230608-07:37:50.029|38=641|55=AAPL|11=9144700|54=1|44=9|40=2|59=0|10=200|8=FIX.4.4|9=102|35=8|49=TradingPlatform|56=ClientC|52=20230608-07:37:50.029|55=AAPL|11=9144700|150=8|58=Invalid Price|10=310|8=FIX.4.4|9=108|35=D|49=ClientB|56=TradingPlatform|52=20230608-07:37:50.398|38=248|55=AAPL|11=17085833|54=1|44=15|40=2|59=0|10=315|8=FIX.4.4|9=133|35=8|49=TradingPlatform|56=ClientB|52=20230608-07:37:50.398|38=248|44=15|55=AAPL|11=17085833|150=0|17=158|39=0|54=1|40=2|59=0|58=New|10=211|8=FIX.4.4|9=160|35=8|49=TradingPlatform|56=ClientC|52=20230608-07:37:50.398|38=934|55=AAPL|11=13991553|17=159|880=39|150=F|39=2|54=2|40=2|59=0|32=47|31=14|151=0|14=934|58=Fill|10=213|8=FIX.4.4|9=161|35=8|49=TradingPlatform|56=ClientB|52=20230608-07:37:50.398|38=248|55=AAPL|11=17085833|17=160|880=39|150=F|39=1|54=1|40=2|59=0|32=47|31=14|151=201|14=47|58=Fill|10=335|8=FIX.4.4|9=157|35=8|49=TradingPlatform|56=ClientA|52=20230608-07:37:50.398|38=18|55=AAPL|11=4842005|17=161|880=40|150=F|39=2|54=2|40=2|59=0|32=18|31=15|151=0|14=18|58=Fill|10=115|8=FIX.4.4|9=161|35=8|49=TradingPlatform|56=ClientB|52=20230608-07:37:50.398|38=248|55=AAPL|11=17085833|17=162|880=40|150=F|39=1|54=1|40=2|59=0|32=18|31=15|151=183|14=65|58=Fill|10=229|8=FIX.4.4|9=95|35=F|49=ClientA|56=TradingPlatform|52=20230608-07:37:54.527|55=AAPL|11=6664686|41=8329681|54=2|10=229|8=FIX.4.4|9=148|35=8|49=TradingPlatform|56=ClientA|52=20230608-07:37:54.527|38=681|44=19|55=AAPL|11=8329681|41=8329681|150=4|17=163|39=4|54=2|40=2|59=0|58=Canceled|10=328|8=FIX.4.4|9=108|35=D|49=ClientB|56=TradingPlatform|52=20230608-07:37:55.618|38=-70|55=AAPL|11=10881255|54=1|44=15|40=2|59=0|10=138|8=FIX.4.4|9=101|35=8|49=TradingPlatform|56=ClientB|52=20230608-07:37:55.618|55=AAPL|11=10881255|150=8|58=Invalid Qty|10=178|8=FIX.4.4|9=107|35=D|49=ClientA|56=TradingPlatform|52=20230608-07:37:56.584|38=471|55=AAPL|11=5367351|54=2|44=17|40=2|59=0|10=343|8=FIX.4.4|9=132|35=8|49=TradingPlatform|56=ClientA|52=20230608-07:37:56.584|38=471|44=17|55=AAPL|11=5367351|150=0|17=164|39=0|54=2|40=2|59=0|58=New|10=259|8=FIX.4.4|9=119|35=G|49=ClientB|56=TradingPlatform|52=20230608-07:37:58.715|38=979|55=AAPL|11=5720978|41=17085833|54=1|44=10|40=2|59=0|10=246|8=FIX.4.4|9=149|35=8|49=TradingPlatform|56=ClientB|52=20230608-07:37:58.715|38=979|44=10|55=AAPL|11=5720978|41=17085833|150=5|17=165|39=5|54=1|40=2|59=0|58=Replaced|10=325|8=FIX.4.4|9=107|35=D|49=ClientD|56=TradingPlatform|52=20230608-07:38:03.539|38=771|55=AAPL|11=1276487|54=2|44=-1|40=2|59=0|10=262|8=FIX.4.4|9=103|35=8|49=TradingPlatform|56=ClientD|52=20230608-07:38:03.539|55=AAPL|11=1276487|150=8|58=Invalid Client|10=301|8=FIX.4.4|9=97|35=F|49=ClientC|56=TradingPlatform|52=20230608-07:38:05.511|55=AAPL|11=12587079|41=17677360|54=1|10=189|8=FIX.4.4|9=150|35=8|49=TradingPlatform|56=ClientC|52=20230608-07:38:05.511|38=963|44=12|55=AAPL|11=17677360|41=17677360|150=4|17=166|39=4|54=1|40=2|59=0|58=Canceled|10=220|8=FIX.4.4|9=113|35=G|49=ClientB|56=TradingPlatform|52=20230608-07:38:09.654|38=860|55=AAPL|11=14076065|41=5720978|54=1|40=2|59=0|10=168|8=FIX.4.4|9=149|35=8|49=TradingPlatform|56=ClientB|52=20230608-07:38:09.654|38=860|44=10|55=AAPL|11=14076065|41=5720978|150=5|17=167|39=5|54=1|40=2|59=0|58=Replaced|10=107|8=FIX.4.4|9=96|35=F|49=ClientA|56=TradingPlatform|52=20230608-07:38:12.638|55=AAPL|11=14371184|41=5367351|54=2|10=176|8=FIX.4.4|9=148|35=8|49=TradingPlatform|56=ClientA|52=20230608-07:38:12.638|38=471|44=17|55=AAPL|11=5367351|41=5367351|150=4|17=168|39=4|54=2|40=2|59=0|58=Canceled|10=295|8=FIX.4.4|9=107|35=D|49=ClientB|56=TradingPlatform|52=20230608-07:38:15.945|38=127|55=AAPL|11=3755752|54=2|44=16|40=2|59=0|10=288|8=FIX.4.4|9=132|35=8|49=TradingPlatform|56=ClientB|52=20230608-07:38:15.945|38=127|44=16|55=AAPL|11=3755752|150=0|17=169|39=0|54=2|40=2|59=0|58=New|10=119|8=FIX.4.4|9=103|35=D|49=ClientC|56=TradingPlatform|52=20230608-07:38:16.663|38=890|55=AAPL|11=15947876|44=17|40=2|59=0|10=349|8=FIX.4.4|9=102|35=8|49=TradingPlatform|56=ClientC|52=20230608-07:38:16.663|55=AAPL|11=15947876|150=8|58=Missing Side|10=176|8=FIX.4.4|9=107|35=D|49=ClientA|56=TradingPlatform|52=20230608-07:38:20.588|38=104|55=AAPL|11=7861525|54=2|44=17|40=2|59=0|10=302|